:100000000C942A000C9447000C9447000C94470071
:100010000C9447000C9447000C9447000C94470044
:100020000C9447000C9447000C9447000C94470034
:100030000C9447000C9447000C9447000C94470024
:100040000C9447000C9447000C9447000C94470014
:100050000C94470011241FBECFE5D4E0DEBFCDBF16
:1000600010E0A0E6B0E0E0EFF8E002C005900D92ED
:10007000A03CB107D9F710E0A0ECB0E001C01D92A0
:10008000AC3CB107E1F70E9471000C9476040C942B
:10009000000085E08BBB8FEF90E7A2E0815090409D
:1000A000A040E1F700C0000081E08BBB0895CF9332
:1000B000DF93EC018881882339F0219688BB0E9468
:1000C000490089918823D1F7DF91CF91089584E089
:1000D0008BBB8FE493EC0197F1F700C000001BBAD3
:1000E00008953F924F925F926F927F928F929F926C
:1000F000AF92BF92CF92DF92EF92FF920F931F9336
:10010000CF93DF938FEF87BB8ABB14BACBEBD0E0E2
:100110008E010B5F1F4F899188BB0E946700C0173B
:10012000D107C9F718C0899188BB0E944900C01740
:10013000D107C9F780EC88BB0E946700C7E8D0E010
:100140008E01005F1F4F899188BB0E944900C01734
:10015000D107C9F706C0C8E9D0E08E01025F1F4F82
:10016000E2CF8FE79AE1A6E081509040A040E1F70E
:1001700000C0000081E088BB0E946700CDEAD0E0AB
:100180008E01025F1F4F899188BB0E944900C017F2
:10019000D107C9F780EC88BB0E9467008FEF99E612
:1001A000A8E181509040A040E1F700C00000C0E00D
:1001B000D0E0DD24D3940F2EF1E4AF2EF02D00EC2F
:1001C00010E00F2EF0E6EF2EF0E0FF2EF02D0F2EB8
:1001D000F2E49F2EF02D0F2EF3E48F2EF02D0F2E34
:1001E000F4E44F2EF02DCC246894C1F80F2EF5E4E2
:1001F0007F2EF02D0F2EF6E46F2EF02D0F2EF7E44C
:100200005F2EF02D0F2EF8E43F2EF02DBB246894C6
:10021000B2F8D3BA9C9B13C0A8BA88B3F801EC0F0C
:10022000FD1F80838FE996E8A1E081509040A040B7
:10023000E1F700C00000C7010E94570021969D9B76
:1002400013C098BA88B3F801EC0FFD1F80838FE9C3
:1002500096E8A1E081509040A040E1F700C0000086
:10026000C7010E94570021969E9B13C088BA88B38D
:10027000F801EC0FFD1F80838FE996E8A1E0815023
:100280009040A040E1F700C00000C7010E94570065
:1002900021969F9B13C048BA88B3F801EC0FFD1F4D
:1002A00080838FE996E8A1E081509040A040E1F77B
:1002B00000C00000C7010E9457002196C3BA9C9B52
:1002C00013C078BA88B3F801EC0FFD1F80838FE963
:1002D00096E8A1E081509040A040E1F700C0000006
:1002E000C7010E94570021969D9B13C068BA88B32E
:1002F000F801EC0FFD1F80838FE996E8A1E08150A3
:100300009040A040E1F700C00000C7010E945700E4
:1003100021969E9B13C058BA88B3F801EC0FFD1FBD
:1003200080838FE996E8A1E081509040A040E1F7FA
:1003300000C00000C7010E94570021969F9B13C078
:1003400038BA88B3F801EC0FFD1F80838FE996E877
:10035000A1E081509040A040E1F700C00000C7013B
:100360000E9457002196B3BA9C9B14C089E488BBB5
:1003700088B3F801EC0FFD1F80838FE996E8A1E0B8
:1003800081509040A040E1F700C00000C7010E94EA
:10039000570021969D9B14C08AE488BB88B3F8015E
:1003A000EC0FFD1F80838FE996E8A1E0815090401B
:1003B000A040E1F700C00000C7010E94570021964D
:1003C0009E9B14C08BE488BB88B3F801EC0FFD1F23
:1003D00080838FE996E8A1E081509040A040E1F74A
:1003E00000C00000C7010E94570021969F9B14C0C7
:1003F0008CE488BB88B3F801EC0FFD1F80838FE984
:1004000096E8A1E081509040A040E1F700C00000D4
:10041000C7010E945700219688E083BB9C9B14C0B3
:100420008DE488BB88B3F801EC0FFD1F80838FE952
:1004300096E8A1E081509040A040E1F700C00000A4
:10044000C7010E94570021969D9B14C08EE488BB73
:1004500088B3F801EC0FFD1F80838FE996E8A1E0D7
:1004600081509040A040E1F700C00000C7010E9409
:10047000570021969E9B14C08FE488BB88B3F80177
:10048000EC0FFD1F80838FE996E8A1E0815090403A
:10049000A040E1F700C00000C7010E94570021966C
:1004A0009F9B14C080E588BB88B3F801EC0FFD1F4B
:1004B00080838FE996E8A1E081509040A040E1F769
:1004C00000C00000C7010E9457002196F801EC0F00
:1004D000FD1F1082C530D1050CF49BCE8FEF99E63D
:1004E000A8E181509040A040E1F700C0000081E009
:1004F00088BB0E94670080E888BB0E946700C2E654
:10050000D0E08E01025F1F4F899188BB0E94490095
:10051000C017D107C9F780EC88BB0E946700C0E014
:10052000D0E0DD24D3940F2EF1E4AF2EF02D06ECB5
:1005300010E00F2EF0E6EF2EF0E0FF2EF02D0F2E44
:10054000F2E49F2EF02D0F2EF3E48F2EF02D0F2EC0
:10055000F4E44F2EF02DCC246894C1F80F2EF5E46E
:100560007F2EF02D0F2EF6E46F2EF02D0F2EF7E4D8
:100570005F2EF02D0F2EF8E43F2EF02DBB24689453
:10058000B2F8D3BA9C9B13C0A8BA88B3F801EC0F99
:10059000FD1F80838FE996E8A1E081509040A04044
:1005A000E1F700C00000C7010E94570021969D9B03
:1005B00013C098BA88B3F801EC0FFD1F80838FE950
:1005C00096E8A1E081509040A040E1F700C0000013
:1005D000C7010E94570021969E9B13C088BA88B31A
:1005E000F801EC0FFD1F80838FE996E8A1E08150B0
:1005F0009040A040E1F700C00000C7010E945700F2
:1006000021969F9B13C048BA88B3F801EC0FFD1FD9
:1006100080838FE996E8A1E081509040A040E1F707
:1006200000C00000C7010E9457002196C3BA9C9BDE
:1006300013C078BA88B3F801EC0FFD1F80838FE9EF
:1006400096E8A1E081509040A040E1F700C0000092
:10065000C7010E94570021969D9B13C068BA88B3BA
:10066000F801EC0FFD1F80838FE996E8A1E081502F
:100670009040A040E1F700C00000C7010E94570071
:1006800021969E9B13C058BA88B3F801EC0FFD1F4A
:1006900080838FE996E8A1E081509040A040E1F787
:1006A00000C00000C7010E94570021969F9B13C005
:1006B00038BA88B3F801EC0FFD1F80838FE996E804
:1006C000A1E081509040A040E1F700C00000C701C8
:1006D0000E9457002196B3BA9C9B14C089E488BB42
:1006E00088B3F801EC0FFD1F80838FE996E8A1E045
:1006F00081509040A040E1F700C00000C7010E9477
:10070000570021969D9B14C08AE488BB88B3F801EA
:10071000EC0FFD1F80838FE996E8A1E081509040A7
:10072000A040E1F700C00000C7010E9457002196D9
:100730009E9B14C08BE488BB88B3F801EC0FFD1FAF
:1007400080838FE996E8A1E081509040A040E1F7D6
:1007500000C00000C7010E94570021969F9B14C053
:100760008CE488BB88B3F801EC0FFD1F80838FE910
:1007700096E8A1E081509040A040E1F700C0000061
:10078000C7010E945700219688E083BB9C9B14C040
:100790008DE488BB88B3F801EC0FFD1F80838FE9DF
:1007A00096E8A1E081509040A040E1F700C0000031
:1007B000C7010E94570021969D9B14C08EE488BB00
:1007C00088B3F801EC0FFD1F80838FE996E8A1E064
:1007D00081509040A040E1F700C00000C7010E9496
:1007E000570021969E9B14C08FE488BB88B3F80104
:1007F000EC0FFD1F80838FE996E8A1E081509040C7
:10080000A040E1F700C00000C7010E9457002196F8
:100810009F9B14C080E588BB88B3F801EC0FFD1FD7
:1008200080838FE996E8A1E081509040A040E1F7F5
:1008300000C00000C7010E9457002196F801EC0F8C
:10084000FD1F1082C530D1050CF49BCE81E088BB22
:100850000E94670080E888BB0E94670080EC90E0FF
:1008600066EC70E045E050E00E946804282F392FC4
:100870002115310569F4CBE7D0E08E01055F1F4FEC
:10088000899188BB0E944900C017D107C9F70CC0E5
:10089000C1E7D0E08E01075F1F4F899188BB0E949E
:1008A0004900C017D107C9F780E090E0DF91CF91F0
:1008B0001F910F91FF90EF90DF90CF90BF90AF907E
:1008C0009F908F907F906F905F904F903F90089592
:1008D000FB01DC014150504030F08D9101908019B6
:1008E00019F40020B9F7881B990B0895F894FFCFED
:1008F0002A00656E7465722070617373776F72641D
:100900000077726F6E672070776400636F72726534
:1009100063742070776400446F6F72204C6F636B58
:100920002053797374656D0050617373776F7264CF
:1009300020626173656400414243444500456E7422
:100940006572206E65772070776400380E0180062E
:00000001FF
